:020000041000EA
:1000000000B5324B212058609868022188439860DF
:10001000D860186158612E4B002199600221596106
:100020000121F02299502B49196001219960352056
:1000300000F044F80222904214D00621196600F024
:1000400034F8196E01211966002018661A6600F04E
:100050002CF8196E196E196E052000F02FF8012189
:100060000842F9D1002199601B49196000215960AB
:100070001A491B48016001219960EB211966A021F2
:10008000196600F012F800219960164914480160C1
:100090000121996001BC002800D000471248134993
:1000A000086003C880F30888084703B5996A0420EC
:1000B0000142FBD001200142F8D103BD02B5186610
:1000C0001866FFF7F2FF186E186E02BD00000240BE
:1000D000000000180000070000035F00212200005C
:1000E000F4000018222000A00001001008ED00E03C
:1000F00000000000000000000000000074B24E7A12
:1001000000200420F7010010C3010010C5010010F9
:10011000C1010010C1010010C1010010C101001097
:10012000C1010010C1010010C1010010C701001081
:10013000C1010010C1010010C9010010CB01001065
:10014000CD010010CD010010CD010010CD01001037
:10015000CD010010CD010010CD010010CD01001027
:10016000CD010010CD010010CD010010CD01001017
:10017000CD010010CD010010CD010010CD01001007
:10018000CD010010CD010010CD010010CD010010F7
:10019000CD010010CD010010CD010010CD010010E7
:1001A000CD010010CD010010CD010010CD010010D7
:1001B000CD010010CD010010CD010010CD010010C7
:1001C00000BE00BE00BE00BE00BE00BEEFF3058054
:1001D000103800BEF2EB8871E4AE051008AF0510D0
:1001E0003402001090A31AE700201F49086006C8D7
:1001F00081F3088810471D48006800282FD10DA4FE
:100200000ECC002902D000F012F8F9E71849194A7B
:10021000002000E001C19142FCD1174988471749ED
:1002200088471749884700BEFDE701C901C29A42C5
:10023000FBD3704708AF0510C00000208C160020CB
:10024000D4C405100000042000000420D4C405100C
:10025000001004200010042000000000704709482E
:1002600008F05AFC0047000008ED00E0000000D054
:10027000B0160020607B0220F9710010850C001080
:10028000217300105756000006005250ABB3605364
:10029000C00D021006005250861C0302D00D021041
:1002A000060052505422A29DE00D0210050052504B
:1002B000DE65F468D4C40510F8B5C04606480749A1
:1002C000091A8B10C90FC91810B5491003D0044B77
:1002D000002B00D0984710BD8C1600208C160020F3
:1002E00000000000054B10B5002B03D00449054861
:1002F00000E000BFFFF7E2FF10BDC04600000000B5
:10030000BC65002020F90110F0B5DE4657464E4688
:100310004546E0B500208FB003F008FE9D4B01007C
:10032000180009F089FB9C4CC821206803F082FA70
:10033000012800D1F1E00CAB0593984B984664205E
:1003400003F094FFC821206803F074FA012800D15B
:10035000FAE0642003F08AFF03F0CAFF002302934F
:100360000023994604938E4B8E4F9A468E4B00265F
:1003700007938E4B8E4D069343460B90B8469B4693
:100380004F4613E001360C2E06D1C821206803F039
:1003900051FA0026012843D03221286803F04AFA96
:1003A000012827D0FA210BA803F006FF642120685A
:1003B00003F040FA0128E5D106AA94460E236344CF
:1003C0001A000A236344180009A900F0B1FE0023B3
:1003D00000220021206802F0E3FF06AB0E229A5EA5
:1003E00006AB0C21595E06AB0A20185E00F0CAFE6F
:1003F000071CC7E74346049A381C5A604A461F60E8
:100400009A6001F0C7FE012358404346029A1873D0
:10041000DA73002100230022286802F0C1FFC1E73F
:1004200053461B8806AA138253469B78382193743F
:10043000584603230AAA00960BF0F2FC0021002381
:100440000022206802F0ACFF502003F00FFFC8210B
:10045000206803F0EFF9012801D000269CE706226E
:100460000021059809F076F806233821059A0096B0
:1004700058460BF03DFD00230600002200212068B5
:1004800002F08EFF062E0BD100230599CB560A7879
:10049000002B08DA3100069809F0CEFA00267BE737
:1004A000059B1A78F6E748788B78CE781B01000315
:1004B00018433309184308F090FFD621890508F046
:1004C00042FF3C4908F03FFFF02381461B03300404
:1004D0001840059B00269B885BBA9BB2184308F026
:1004E0007CFFD621890508F02EFF334908F02BFF49
:1004F000324908F00EFF049008F09CFF029003912F
:10050000484608F097FF029A039B009001910798D4
:1005100009F092FA012302933EE76B230CAA1380A1
:100520001E4B0025984668210223404600950592FF
:100530000BF076FC2B002A002900206802F030FF27
:100540001F4809F0DBF8FAE60025BA2306AA13755E
:1005500038210BAAB93B404600950BF061FC1420F2
:1005600003F084FE174B05991A8840460A809B7851
:100570000A008B700323382100950BF051FC2B00EF
:100580002A002900206802F00BFF0F4809F0B6F896
:10059000DFE6C04620F90110A4650020B810002055
:1005A000F8F901104C2B002098F90110C0F9011046
:1005B000A06500200000C8420000484300004842F7
:1005C0004CF90110FCF9011074F90110F0B5DE4688
:1005D0004E46454657460023E0B500209FB098465A
:1005E0009B460293039303F0A1FC884B0100180083
:1005F00009F022FA03F07CFE854B864F9946864B24
:10060000864E0493864B874C1193874B159012931B
:10061000864B16AD0593864B0693864B0F93864B00
:100620001093864B1393864B0A93864B0B93864B02
:100630000C93864B0D93864B0E93864B079348E0A5
:10064000089808F0F7FE0A9A0090019120212800EE
:1006500008F018FA0123262200212000009500F05E
:10066000D3FF099808F0E6FE0B9A00900191202133
:10067000280008F007FA009501233022002120000D
:1006800000F0C2FF4346002B06D001220E990B78E2
:1006900053400B7000D0B1E003F030FE2021030086
:1006A000079A280008F0EEF90123382200212000E3
:1006B000009500F0A9FF200000F0DAFF00230022DF
:1006C0000021306802F06CFEFA2115A8490003F001
:1006D00073FD4B463221186803F0ACF801285FD057
:1006E0006421306803F0A6F80128EDD1200000F065
:1006F000E1FE049B0022009300210123200000F072
:1007000083FF029B002B63D15B46002B6BD1059BC3
:100710000022732120000093012300F075FF0A23BB
:100720000A22002120000093753300F0CBFE5046D2
:1007300008F080FE069A009001912021280008F020
:10074000A1F901230E2200212000009500F05CFF9A
:100750004346002B50D050463F4908F023FE002866
:1007600034D00F9B1822002120000093012300F0B9
:100770004BFF22232222009300215D33200000F052
:10078000A1FE039B002B00D05AE70C9B262200936E
:1007900000210123200000F037FF0D9B00936BE741
:1007A0003B6800229A467B6800210893BB68099346
:1007B0003B7B98467B7B0293BB7B9B46FB7B0393F7
:1007C0004B461868002302F0EBFD89E7109BC9E750
:1007D000119B002200935A210123200000F014FFF6
:1007E0005B46002B93D0129B0022009364210123CF
:1007F000200000F009FF8AE7139BB3E708230022DB
:1008000078212000009300F0C7FE45E700FA0110B0
:10081000A06500204C2B00202CFA0110A8650020B8
:100820008C2A0210FC2B00203CFA011040FA011027
:1008300044FA011054FA011060FA01106CFA011028
:1008400078FA011088FA011098FA0110A8FA01103C
:10085000567B0220B8FA01100000F041F0B5D646F0
:100860004F464646C0B5002082B003F05FFB214BE7
:100870000100180009F0E0F803F03AFD1E4B1F4F8D
:1008800099461F4B1F4E98461F4B01909A4615E004
:10089000012001F065FF01F0E7FB0100484609F087
:1008A000CBF801F057FF32210500306802F0C2FF9B
:1008B000012815D0154901A803F07EFC01F0F4FBD6
:1008C0000028F7D1380008F019FF01F01DFB041EC5
:1008D000DED1002001F044FF404608F00FFFE0E7C2
:1008E000534600225C739D7300210023306802F0A0
:1008F00057FDDFE7C4FA011030FB0110F4FA0110D4
:100900005CFB0110A06500204C2B0020102700008C
:10091000F0B5CE46474680B5002083B003F006FB15
:10092000174B0100180009F087F803F0E1FC154BA4
:1009300000259946144C01900EE001F06DFD002851
:1009400005D02B004146321C381C01F0FFFCFA2177
:1009500001A8C90003F030FC3221206802F06AFFD0
:100960000128EAD14B461E685F689B6800229846C2
:100970004B4600211D7B2068002302F011FDDCE7BF
:1009800084FB01104C2B0020A0650020F0B5DE4652
:10099000574645464E46E0B5002083B003F0C6FA00
:1009A000234B0100180009F047F801F0CDFB00F0DF
:1009B000C7FE03F09DFC1F4BD0259A4680239B0168
:1009C00098468023DB00002700249B461A4E0190A6
:1009D0002D060CE001346B61E30719D5484601F0A0
:1009E000EDFB00F0DFFEC82101A803F0E5FB32219A
:1009F000306802F01FFF01280DD04346002FE9D1D7
:100A0000AB615B465A20AB6100F0CCFE0024EAE704
:100A100001F0ACFBE2E753461B68002299465346BF
:100A200000211F7B3068002302F0BAFCE5E7C046D6
:100A3000ACFB01104C2B0020A0650020F0B5DE4679
:100A400057464E4645460023E0B500209FB09A46E3
:100A5000089303F06BFA7A4B0100180008F0ECFFE2
:100A600003F046FC774B19909846774B9946774BA5
:100A70001793774B9B46774B0C93774B0D93774BA4
:100A80000E93774B0F93774B1693774B1093774BCF
:100A90001193774B1293774B1493774B1393774BB8
:100AA000159311E001F000FB050001F053FE4346F1
:100AB00004003221186802F0BDFE012800D18EE04A
:100AC0006F4919A803F078FB43463221186802F0F9
:100AD000B1FE01286CD05346002BF1D017F010FC6A
:100AE00001F038FE002800D195E001F033FE002827
:100AF000D8D00A9808F09EFC03000C005A460093D8
:100B0000019410211AA80693079407F0BBFF1AA9B5
:100B10000C9801F00FFD17F0F3FB642003F0A6FB27
:100B20000B9808F087FC06000F005A46102100962B
:100B300001971AA807F0A6FF1AA90D9801F0FAFC70
:100B400017F0DEFB642003F091FB099808F072FCBB
:100B500004000D005A461021009401951AA807F0D0
:100B600091FF0E981AA901F0E5FC17F0C9FB64206B
:100B700003F07CFB089B002B3CD01699109801F0E9
:100B8000D9FC17F0BDFB642003F070FB119912989B
:100B900001F0D0FC17F0B4FB149B0493029403956E
:100BA000069A079B009601970F9808F045FF79E792
:100BB0004B461B68002209934B465B6800210A9351
:100BC0004B469B680B934B461B7B08934B465B7BCA
:100BD0009A4643461868002302F0E2FB7BE74B4647
:100BE0005D739C734346002200211868002302F0C5
:100BF000D7FB65E71399109801F09CFC17F080FB78
:100C0000642003F033FB1199129801F093FC17F064
:100C100077FB159BC1E7179808F070FD1E2401F0C3
:100C20003BFD03E0013C002C00D15EE717F068FBC0
:100C3000642003F01BFB01F08DFD0028F2D054E787
:100C4000E0FB0110A06500204C2B002008FC0110E7
:100C50004CFA011030FC01104CFC011064FC011036
:100C60007CFC0110B8FC0110C0FC0110D8FC011084
:100C7000E0FC0110D8FB0110F8FC0110DCFB0110B6
:100C800088130000F0B58BB008F0E2FEE24808F0EF
:100C900035FDE249E24808F0CFFE01F0CFFA6420CA
:100CA00005F04EFCDF49E04801F000FB01F0E2FAFC
:100CB000642005F045FC01F047FA01F021FB01F04A
:100CC0007FFBDA4808F01AFDD94BDA4C009340223A
:100CD0003C238021200000F04BFB002800D1F6E0EF
:100CE000642005F02DFC200000F0E4FBD24B0A222A
:100CF0000A2120000093022300F086FC23232322F4
:100D00000021200000935C3300F0DCFBCB4B282259
:100D1000052120000093012300F076FC200000F064
:100D2000A7FCC74805F00CFCC64808F0E7FC01200A
:100D300002F022FCC44D2860012002F01DFCC34ECD
:100D40003060012002F018FCC14F2B683860002B86
:100D50005CD03368002B59D0002857D0BD4808F02C
:100D6000CDFC200000F0A6FBBB4B0F22052120008C
:100D70000093012300F048FC200000F079FC01F012
:100D8000C3F8061E49D1B54808F0B8FC200000F0B1
:100D900091FBB34B0F22052100932000012300F0AB
:100DA00033FCB04B1E22009305210123200000F0EC
:100DB0002BFCAD4B2000009330220123052100F0D5
:100DC00023FC200000F054FCFA20800005F0B8FB62
:100DD00001F0C0FC32210400386802F02BFD01282C
:100DE00000D19EE003248022A04BA1490193A14899
:100DF00000230094D20002F0FDFF01286BD09E4832
:100E000008F07CFC9D4808F079FCFEE79C4808F05F
:100E100075FC9C4808F072FCFEE7012001F0A0FC84
:100E200001F022F9984B0100180008F005FE20009F
:100E300000F040FB0A22954B110020000093012393
:100E400000F0E2FB01F010F902AD030020212800C0
:100E50008F4A07F017FE0123192200212000009578
:100E600000F0D2FB8B4B28220521200000930123A8
:100E700000F0CAFB200000F0FBFB002501F00CFC99
:100E800002E00135322D0DD017F03AFA642005F05A
:100E900057FB01F05FFC0028F3D064217E486943D2
:100EA00008F0CAFD01F056FC002832D0200000F006
:100EB00001FB7A4B0F220A2100932000012300F04E
:100EC000A3FB774B1E2200930A2101236EE775488E
:100ED00008F014FC04E704278022734B7349019344
:100EE000734800230097920002F084FF012814D178
:100EF000022580226F4B70490193704800230095B2
:100F0000D20002F077FF012815D06D4808F0F6FBFB
:100F100078E76C4808F0F2FB56E76B4808F0EEFB08
:100F200070E76A4B38685E739C7300231A001900DF
:100F300002F036FA56E78022654B664E0193009028
:100F4000002330006449120102F054FF012810D13F
:100F50008022624B624E0193009000233000614971
:100F6000920002F047FF012807D05F4808F0C6FB57
:100F700048E75E4808F0C2FB44E780225C4B5D49CD
:100F800001935D4800230095D20002F033FF060074
:100F9000012803D0594808F0B1FB33E7584808F05E
:100FA000ADFB80222100D200564808F045FD80228A
:100FB00039009200544808F03FFD80222900D200F9
:100FC000524808F039FD802231001201504808F0E3
:100FD00033FD8022310092004E4808F02DFD802222
:100FE0002900D2004C4808F027FD4C4808F086FB49
:100FF0004B4808F083FB01F097FC4A4B01001800B6
:1010000008F01AFD484808F079FB02F09FFF4748B6
:1010100008F074FBFEE7C046FCFC01102CFD01103B
:1010200034FD011054FD0110B81000205CFD0110CA
:10103000B0100020FC2B0020A8FD0110B4FD011011
:10104000DC050000CCFD0110A4650020A86500208F
:10105000A065002050FE01107CFE011058FF011019
:1010600088FF011094FF011018FF0110B430002018
:10107000A4FF011009030010B0FF0110900202103C
:10108000F8FD011018FE011090FE0110B0FE0110D5
:10109000C0FE0110C8FE0110DCFE011000FF0110AF
:1010A0000CFF01107CFD0110A8300020D4FF0110BE
:1010B0008D090010AC30002000000210CD0500109A
:1010C000080002102CFF0110DCFF01104C2B002047
:1010D000B03000203D0A00102C000210B830002073
:1010E00011090010540002105C00021034000210BC
:1010F000BC3000207C0002105D080010840002104B
:10110000AC000210D8000210FC00021020010210F6
:1011100044010210680102108C010210B00102109B
:10112000E40102100C0202102C02021060020210F4
:10113000F0B5C6463B2300B586B0114D160003AA94
:1011400013703A3B80460F000093682128000AF094
:1011500067FE002304AC22000093682128000633B8
:101160000AF0C6FE424623885BBA138063885BBAE6
:101170003B80A3885BBA338006B080BCB846F0BD24
:10118000B810002070B506000800140007F0E2FF58
:1011900000221C4B07F079FF08F020F8051C200006
:1011A00007F0D8FF0022174B07F06FFF08F016F882
:1011B000291C041C281C08F0C6F8211C051C201C36
:1011C00008F0C1F8011C281C08F0A6F808F032F954
:1011D00008F00CF80D000400300007F0BBFF0022FF
:1011E000084B07F052FF07F0F9FF08F023F92B0036
:1011F000220008F003F8044A044B07F046FF07F00A
:10120000EDFF70BD0000103FF8C1631ADCA54C4033
:10121000F0B5454657464E46DE46E0B58FB018ADB0
:1012200010CD94462F780725267835406A1E9541C3
:10123000A8466578F608B044002D00D191E04646F6
:10124000002E00D18DE06246013A0C92012259181D
:10125000DE0091460632A4460A9644460026884699
:10126000924619002B006246D57809947D1B5D4398
:1012700043465B1A9B46AD1965435C4605350B95A5
:1012800005944D4644460C9B6D1A5B18039400224E
:1012900064468C46390004950D960B9D1F00651918
:1012A000AE5C0792089308250B0032006146A44605
:1012B00005E0013DEDB252087F18002D37D04C46B5
:1012C0001442F6D0049CE619059C0029F1D0E046B2
:1012D0008B469C460692037831000295A34217D9AB
:1012E00042788A420ED9CA085343C2684D460192D9
:1012F00052460A4095402A00019D1B19ED5C2A4385
:10130000019DEA54B94203D003780131A342E7D8E2
:10131000039B0134029D9C42DDD15946069A013D52
:10132000EDB263465208C4467F18002DC7D10A9D0E
:10133000079AA8466446099D8C461900089B01320D
:1013400043449542A9D10F006146A446039B0D9EDC
:101350009846634601365B78F2B22C00884493428B
:1013600081D80FB0F0BCBB46B246A946A046F0BD3E
:10137000F0B5DE46574645464E46E0B50F009A4664
:101380008BB0149B0600C8B242499B46D3B2394089
:1013900098461B020B4351461500D208D2B21404E2
:1013A00023431B0209061B0A0B4333605B46504371
:1013B00073603061013008F077F8F060002867D082
:1013C000354B03AC03934346013B2371D323637135
:1013D0008023DB01E3808D232372337A0130F060B8
:1013E0006D00002B48D11423BD424BDB1221F122AA
:1013F00063722A4B25276381DA2323735A3BFF3B11
:10140000E3815933FF332374254B61736382254B8A
:101410006274089300232376234B6F449846234B32
:1014200002AD99460CE0013003D14146204808F056
:1014300003FB0134A74217D073689B46F3789A46A2
:10144000002322782B706A70514600932A000233E1
:1014500058460AF0E5FC831CE5D141464846013474
:1014600008F0EAFAA742E7D101200BB0F0BCBB4676
:10147000B246A946A046F0BD1023BD4205DB1221AD
:101480002222B5E70221F122B2E702212222AFE7B0
:101490003061EAE7FF00FFFFAED580A8A1C8FFFFDB
:1014A000DB300000A4A6AF20C8020210D802021050
:1014B000F8020210030010B50021C0681A6908F094
:1014C00049F810BDF8B557464E464546DE460C0075
:1014D000E0B5060017001D0099423CDC56D00A9B7F
:1014E000981A07F07FFF8046281B07F07BFF011C3E
:1014F000404607F014FF8246380007F073FF6B1C6C
:1015000098460723814600279B463578A54218D97F
:10151000380007F067FF514607F015FF494607F00E
:10152000FBFE07F081FF737898420AD2C3085D433F
:101530005B46184001238340F2682D19515D0B432F
:101540005355013401374445DFD1F0BCBB46B246A8
:10155000A946A046F8BD0A9A072301279C4633787E
:10156000AB42F2D9717891420BD9D1084B43614615
:101570003C0011408C402100F0685B19C45C2143A1
:10158000C1540A9B01329342E9DADEE70A9B9A4290
:10159000E2DD1A00E0E7C046F0B5DE4657464E46AB
:1015A00045460C009446E0B5002B27D0099A002A46
:1015B00024D0984663469146013B9944072301266F
:1015C0009B46884403786246A34214D941789142ED
:1015D0000BD9D1084B435946370011408F40390091
:1015E000C5681B19EF5C3943E954914503D0037872
:1015F0000132A342EAD80134A045E3D1F0BCBB4696
:10160000B246A946A046F0BDF0B54E4645465746FF
:10161000DE46E0B583B00C9D81462C789246984614
:101620000E00002C16D05F00104B47449B467F00F5
:101630002300203B01355E2B13D85B46310001941B
:101640000093524643464846FFF7E2FD2C78BE1908
:10165000002CEDD103B0F0BCBB46B246A946A04673
:10166000F0BD2C78BE19002CE2D1F3E7482E021011
:10167000F0B5CE464746212380B5027887B004AC4A
:101680002380531EA3702223E370002323718378E9
:101690000600013B6371402A03D1202363703F336E
:1016A000A3701627224B6F449846224B03AD9946F0
:1016B00008E0013003D141461F4808F0BDF901346C
:1016C000A74213D0002322782B706A70F1787068DB
:1016D0002A00009302330AF0A3FB831CE9D14146A0
:1016E0004846013408F0A8F9A742EBD14022002473
:1016F000F368013B1A703369F268F178706801335E
:10170000013A00940AF08CFB831C0BD0013004D00A
:1017100007B0C0BCB946B046F0BD0849064808F05D
:101720008BF9F5E70549034808F086F9F0E7C0466C
:10173000C8020210D8020210F802021008030210B8
:1017400070B5002401260421022003F0B1FE104BE5
:10175000104D05201C602E6003F0A8FC07F03DFE34
:101760000D4907F0DCFD8321C90507F0ECFD07F00A
:101770005BFE2A6893009B18084A9B009446084A1F
:1017800063441C609C60DC601A6158601E6070BD20
:1017900070210020D0790020002474490000054009
:1017A000204E000010B5B42800D9B42043011B1A04
:1017B0009B001818B421000107F008FA0C4BF53013
:1017C0001A68FF3093009B180A4A9B0094460A4A05
:1017D00063441268002A09D0084900041A6842408C
:1017E0001140802252011343196010BD0449F5E7EE
:1017F000D07900200C000540702100200000FFFF80
:10180000FFFF0000F0B5CE464746C31C80B55B1A0B
:10181000062B36D903000B439B0732D10B680360BC
:101820004B6843608B688360CB68C3600326254F99
:101830000422B846B446C57B847B417B037B224EA1
:101840006746174209D1715C47468946315D745D30
:10185000F55C9308FB5C4F467B40077801327B4088
:10186000477803747940877841747C40C7788474E2
:101870007D40C57404302C2AE2D1C0BCB946B046C4
:10188000F0BD0B7803704B7843708B788370CB7806
:10189000C3700B7903714B7943718B798371CB7969
:1018A000C3710B7A03724B7A43728B7A8372CB7A51
:1018B000C3720B7B03734B7B43738B7B8373CB7B39
:1018C000C373B3E72830021034300210F0B54E462F
:1018D000DE4657464546E0B5C31C95B00600139159
:1018E0005B1A062B00D80DE20B0003439B0700D0C8
:1018F00008E20A680368534003604A68436853403B
:1019000043608A68836853408360CA68C3685340F1
:10191000C36010229446337834799846337A42462D
:101920000293337B0493737800937379717A9A46A8
:10193000B378777B0193B3790393F378B07A9946C0
:10194000F379B57B0593F37A9B46F37B0692099373
:10195000139B5A4663449C46139BA0331293E84B57
:101960000793029B98460300604602900798A4469E
:10197000834642E165464B46069A7B405540EC095A
:101980001A0064426B401B20984623006D00034000
:101990005D404346069C63405D4063467B40DC09F6
:1019A000EDB264420D9535701D0023006D000340BB
:1019B00044465D406346674063404C465D40EBB241
:1019C000D5096D42054052006A407A40D7B2069A66
:1019D0000F9762401400D209524202406400B7706F
:1019E00062404F4644460E937C4073700C9B6240AD
:1019F000D4B21A001094F470079C039D4C406A40C6
:101A00002500E7097F42074064007C40079F55405E
:101A10006F407C40E4B20C9434711C004C40E709E8
:101A20007F420740640069407C404C40E1B21C00AA
:101A300007008A467171D10949420140520003985A
:101A40004A4007996C4041406240D4B2CA095242B0
:101A50003A40490045404A400B986A40D2B207924A
:101A6000F2710200049B11945A40B471099B059CC9
:101A700063401D0055402C00D5096D423D40520089
:101A80006A40050065406A40D1B28846099A3172C1
:101A900004994A40D5096D423D4052006A400D000C
:101AA00065406A40D5B2DA0952423A405B00534081
:101AB000049575720599099A484062405A40C309D5
:101AC0004C405B42089945003B406B400D005C4038
:101AD000009B0A985D40019BD2B243401F001B202F
:101AE0006F40BC46EF097F4207406D007D400F000C
:101AF00061464F4000986F40019DE4B245401B2075
:101B0000E909494201406D004D4061460098FFB22D
:101B1000484045401B20D909494201405B004B40E9
:101B200061460198EDB248404340D9B20A98089BFB
:101B3000B173434009911B201900DB095B4203404C
:101B400049004B4061460A98B27241404B40DBB2BB
:101B50000299F47237737573F3730D9808930B78C9
:101B6000584030704B7806900E98584070708B78C3
:101B700000900F9858400190B070CB781098584062
:101B8000F0700B7981460C98584030714B7984463F
:101B900008005146594071718A46010083791198B5
:101BA0005840B07103900800CB7907995940F17102
:101BB000037A05910100404658400B003072497A83
:101BC000804604984140180071729B7A5340B3726A
:101BD000C27A6240F272047B674037730497477B96
:101BE0006F407773857B099C6540B573C47B08980B
:101BF000604009900298103002905846069C045D9F
:101C0000069434706446005D5C460790307140462F
:101C1000205C0B9030720498205C08903073009820
:101C2000205C00905046245CA4465C46E75D655D00
:101C30000497019F615CE75D3800039FE75D0197B2
:101C4000E75C4C465B461B5D059C03935B461B5D56
:101C50005C460593A35C099A0A93A45C049AA14686
:101C6000644674704C467272F373009A059B7273EB
:101C70000990019AB072F4700398F372129C029B5F
:101C80007171B7700C95B571B273F0719C4200D050
:101C900070E6069B25009846079B8A469B464B4666
:101CA0008146002039000700341DA54247413C0011
:101CB000139F62463D00A435AE424041044363D0C9
:101CC0001298304380075FD1A0223368BA5853403E
:101CD000A4223360BA5873685340A8227360BA587C
:101CE000B3685340AC22B360BA58F3685340F36012
:101CF00015B0F0BCBB46B246A946A046F0BDC046F2
:101D000034300210139932780B78534033704B788B
:101D10007278534073708B78B2785340B370CB783D
:101D2000F2785340F3700B793279534033714B7929
:101D30007279534073718B79B2795340B371CB7917
:101D4000F2795340F3710B7A327A534033724B7A03
:101D5000727A534073728B7AB27A5340B372CA7AF2
:101D6000F37A5340F3720B7B327B534033734B7BDC
:101D7000727B534073738B7BB27B5340B373CB7BCB
:101D8000F27B5340F373C4E5A0204546139C205CCE
:101D90004540A1203570205C42407270A222A25CB6
:101DA0005140A322B170A25C59465340F370A42362
:101DB000E35C5940A52331715146E35C5940A623A9
:101DC0007171E35C0C995940A723B1714946E35CFA
:101DD0005940A823F171E35C0B995940A923317252
:101DE000E35C04995940AA237172E35C0999594054
:101DF000AB23B172E35C05995940AC23F172E35C0B
:101E000008995940AD233173E35C00990A9A59400F
:101E1000AE237173E35C01995940AF23B173E35C66
:101E20005A40F27364E7C04670B504001500FFF72E
:101E3000E9FC200029001022B03007F091FB70BDB2
:101E4000B023F0B5C646984606000C00170000B552
:101E50008044002A55D04346002500E0140019783C
:101E6000227820004A4022705978627810354A4022
:101E700062709978A2784A40A270D978E2784A4094
:101E8000E270197922794A402271597962794A407F
:101E900062719979A2794A40A271D979E2794A406E
:101EA000E271197A227A4A402272597A627A4A4059
:101EB0006272997AA27A4A40A272D97AE27A4A4048
:101EC000E272197B227B4A402273597B627B4A4033
:101ED0006273997BA27B4A40A273E17BDB7B4B4020
:101EE000E3733100FFF7F2FC220023001032AF420F
:101EF000B4D840461022210007F032FB80BCB8461F
:101F0000F0BD4446F5E7C046F0B5C6463F4800B5CB
:101F100007F0F4FB16F000FA002863D116F08CF9F4
:101F20003B4807F0EBFBFA20800004F009FB394E38
:101F30003948310007F080FD0821384807F07CFD62
:101F4000374B01259846374F05222900404607F0B8
:101F500073FD39003000344B344A16F07BF9041E0F
:101F600044D022002900324807F066FDA31C35D07A
:101F7000631C2FD0033429D02E4807F0BFFB052D5A
:101F800017D02D4807F0BAFB2C4804F0D9FA16F008
:101F9000FDF9FA20400004F0D3FA16F0BDF900284C
:101FA00030D116F049F9FA20400004F0C9FA0135A1
:101FB000CAE70521224807F03FFD224807F09EFBB3
:101FC00016F0E4F9002080BCB846F0BD1E4807F0CA
:101FD00095FBD4E71D4807F091FBD0E71C4807F0BC
:101FE0008DFBCCE71B4807F089FBEBE731001A4873
:101FF00007F022FD194807F081FB0122184B012050
:102000001A70E0E7174807F079FBDBE718030210C6
:10201000680302108403021094030210A803021044
:10202000C8030210F0030210983A000004004000B8
:10203000540402101C050210C0050210B80B000069
:10204000440502106C050210E8040210800402101E
:10205000B804021038030210FC030210200402101E
:102060005F7B0220FC0502100B4B10B5186800289E
:1020700003D03923C35CDB0701D4084810BD04300A
:1020800015F0A0FD064C030010212000054A06F0C3
:10209000F9FC2000F2E7C046AC650020F402021013
:1020A000EC340020C4FE0110014B18787047C04684
:1020B0005F7B0220F0B5C64600B505000C00170096
:1020C000B4B0002838D0002936D0002A34D0EC46ED
:1020D00061461A4B45CB45C11B6862460B6004A89C
:1020E0001749FFF7A1FE28001DF0A6F906090136E1
:1020F00080463601802E1CD832000021200007F0D7
:1021000029FA42462900200007F02AFA4346F21A2B
:10211000D1B2B04502D2E01807F01CFA04A8320090
:102120002100FFF78DFE01203E6034B080BCB84630
:10213000F0BD044807F0E2FA0020F6E7540602106A
:10214000343102102006021010B50D2003F0ACFA55
:10215000D024802324069B0163620A20A36103F03C
:10216000A3FA8023DB006362A36110BD0121084A4A
:1021700013784B40137005D0D02380221B06D20069
:102180005A617047D02380221B06D2009A61F8E77B
:102190004D7B022010B50749041C07F011F90028F7
:1021A00006D00549201C07F003F9431E984110BDD5
:1021B0000020FCE70000F0410000344210B5011C93
:1021C0000D4807F0A6F80D49041C07F001F9782323
:1021D000002806D10A49201C07F0E4F83C23002817
:1021E00001D0180010BD0749201C07F095F807F032
:1021F0001BF90300F5E7C046000016420000F0415D
:102200000000F0C10000B44210B5052802D0062835
:1022100007D010BD0122064B06481A7007F06EFA6F
:10222000F7E70022024B04481A7007F067FAF0E75C
:102230005D7B0220680602109406021010B50B495F
:102240000B4809F0C5FD0321002003F031F90321FB
:10225000012003F02DF900220121002003F040F9B4
:1022600000220121012003F03BF910BD801A060075
:10227000B810002010B50B490B4809F0A9FD032147
:102280000E2003F015F903210F2003F011F90022AD
:1022900001210E2003F024F9002201210F2003F078
:1022A0001FF910BD801A0600B0100020F0B5002400
:1022B0000026050085B00F4807F0BEFB0E4F0F2229
:1022C00001232800E1B200966A4409F011FE0028BB
:1022D00007DA0134802CF2D1084807F00FFA05B074
:1022E000F0BD21003800013407F0A6FB802CE6D1B8
:1022F000F2E7C046C0060210D8060210000702101E
:1023000070B5E1250F4C6D022900200004F040FE5D
:102310000221082003F0CCF80221092003F0C8F8BC
:10232000002301222000082104F0F8FE20000121F2
:1023300004F032FF2B0009220821034807F07CFB40
:1023400070BDC046008003401407021070B5041C25
:10235000101C174A98B012780D1C002A01D118B031
:1023600070BD069307F066F804900591281C07F0ED
:1023700061F802900391201C07F05CF80D4E00906C
:1023800001913200402108A808AC06F07BFBA4466E
:102390002021094A604493691942FCD12378013411
:1023A00013608442F7D108A9044807F045FBD6E73B
:1023B0005D7B02205007021000800340640702107A
:1023C00010B50520D02403F06FF920232406A36262
:1023D00000220121052003F083F8062003F064F9B0
:1023E00040230022A3620121062003F079F8084B64
:1023F00001220421052003F0C3F801220421062054
:1024000003F094F806220521024807F015FB10BDE1
:10241000092200107C070210014B1878C0B27047E7
:102420005D7B0220F0B5C64600B505000C008AB001
:1024300000285AD00100304807F0FEFA002C4FD097
:10244000200015F0BFFB2D4B02002900180007F0FB
:10245000F3FA23682A4D6B602B68002B0AD02948B9
:1024600007F04CF928681CF0C1F828681BF0F6FC4E
:1024700000232B60244807F041F91BF0E7FC28609B
:10248000002834D0214807F039F91822002104A887
:1024900007F060F81E4B03AE984603933C232000E0
:1024A000B38115F08FFB1B4F010043461A4A3800D9
:1024B00007F0C2FA0022286821000092174B164A42
:1024C00001961BF0CFFC011E06D1154807F016F946
:1024D0000AB080BCB846F0BD124807F0ADFAF7E785
:1024E0002900114807F0A8FAF2E71049A3E71048BD
:1024F00007F004F9ECE7C046B8070210DC07021049
:1025000094650020FC070210240802106C080210D9
:1025100090080210A80802105B07000015260010A2
:1025200004090210E008021038090210FC1C021015
:1025300048080210F0B5C64600B52D4F06003868B1
:102540000C00A6B0002802D03B7A002B06D1294807
:1025500007F0D4F826B080BCB846F0BD1CF058F89F
:102560000028F4D08022002106A806F0F3FF002303
:10257000200005AA06A90593FFF79CFD002832D08C
:10258000002E2ED031001C4807F056FA059900297C
:102590000CD01A4B0024984606AD2978404607F027
:1025A0004BFA059901340135A142F6D8144807F0D9
:1025B00043FA0022059B386831000392029201928F
:1025C00000929BB206AA1BF0AFFA011E04D03200A3
:1025D0000C4807F031FABDE731000B4807F02CFA40
:1025E000B8E70A49CFE70A4807F088F8B2E7C046DB
:1025F0009465002060090210A8090210F409021075
:10260000FC0902100C0A0210380A021058090210C4
:10261000800902108023110010B55B009A421BD084
:102620000223FF339A4210D0002A1CD111491248CC
:1026300007F002FA114807F061F80122104B114926
:1026400011481A72FFF776FF10BD104807F056F8D0
:1026500000220B4B1A72F7E70D4807F04FF80022E3
:10266000074B1A72F0E70B4807F0E6F90022044B1B
:102670001A72E9E7680A02107C0A0210A00A021026
:1026800094650020D8FC0110E0FC0110EC0A021057
:10269000C80A0210200B021070B5224807F02EF86D
:1026A000214D2B6898681CF0FFFB204C637A002BAF
:1026B00030D01F4807F022F81E4E1F48310007F0A7
:1026C000BBF92B68043498681CF0EEFB15F018FE7B
:1026D000210000233000194A0BF036F80500184895
:1026E000290007F0A9F9002D06D06B1D16D029008E
:1026F000144807F0A1F970BD200015F063FA124BE1
:102700000100180007F098F9002221003000FFF7BF
:1027100089FEF0E70D4806F0F1FFECE70C4806F003
:10272000EDFFE8E7480B02103C15002094650020FF
:10273000B80B0210680A0210E40B021025240010E6
:10274000080C02108C0C0210300C0210700B0210DE
:10275000500C0210014B187A7047C0469465002057
:10276000014B58727047C04694650020F0B5C646CC
:10277000431E00B50A3314D8072304001A00083496
:10278000224023426CD01300093BA34209D31030EE
:10279000841A01F045FC374A27001568002D28D11E
:1027A0000EE001F03DFC334A1368002B06D00025F3
:1027B00001F03EFC280080BCB846F0BD0027002494
:1027C00007202D4D2B002900284245D100202B4EFB
:1027D000706031602A4EB44607266544B5431560E3
:1027E000284AEB1A1360284A6860286013604B601F
:1027F0000D60002FDBDD244F3E68A642D7D31F4873
:10280000036804E01A68002A04D01800130059680D
:10281000A142F7D3AB42CAD01D001A6808359046D2
:1028200002600A1B102A05D919194A6042460A603B
:1028300001602100134A761A10683E60864200D279
:102840001660802212060A435A6000221A600F4A5C
:10285000136801331360ABE7EB1D83431900B5E741
:1028600001F0DEFB034A27001568002DA8D0002CDC
:10287000C1DA9CE7FC650020247A0020EC7A022073
:10288000F8FF0100BC7A0220B07A0220C87A022048
:1028900070B5002804D0083843680400002B00DB22
:1028A00070BD0268002AFBD15B005B084360050035
:1028B00001F0B6FB184A616813685B181360174B88
:1028C0001A001B689C42FBD850681618B4420DD001
:1028D000601883421AD02360AA4200D01560104AC3
:1028E00013680133136001F0A3FBD9E709185018EE
:1028F00051608342F3D10B48150000688342EED04B
:1029000058681B68411869602B60E5E70548006856
:102910008342F5D1DFE7C046B07A0220EC7A02208C
:10292000CC7A0220FC650020014B18687047C04635
:10293000B07A02207047C04600000000000000008E
:102940000B4A13681868203080F30988022080F34E
:102950001488BFF36F8F3FBCAE4608BC04BC62B6A0
:102960001847C046C046C046C046C046C046C046DE
:10297000F0650020000000000000000000000000E2
:10298000EFF30980164B1A6820381060F0C04446F7
:102990004D4656465F46F0C00D221207146E556E26
:1029A000566F176F3038F0C008B572B601F0BEFC34
:1029B00062B60CBC116808681030F0C8A046A94681
:1029C000B246BB4680F309880D2212073038F0C8A2
:1029D0001466556656671767F0C81847C046C04664
:1029E000F0650020D02300B51B061A6D83B0D20716
:1029F00004D501219A6D1A6D1142FBD1D023FF221B
:102A00001B061A650023114A01931168EFF3108C1D
:102A100072B60B68002BFCD0BFF35F8F00230C480D
:102A2000126801680360BFF35F8F13608CF3108836
:102A3000084B01AA186800F015FB019B002B03D07E
:102A40008022054B52051A6003B000BDEC650020E2
:102A5000447A0220AC7A022004ED00E010B504F0C4
:102A60007BFCC04610B58024031F64041C60043B3B
:102A700019600349043B1960143B40381A6010BDCB
:102A80005D2A00108022044B52051A60BFF34F8F5D
:102A9000BFF36F8F7047C04604ED00E072B6044A82
:102AA000136801331360BFF34F8FBFF36F8F70470D
:102AB000407A0220094A1368013B1360002B0CD1B5
:102AC00007490A68002A07D00B6006490968BFF366
:102AD0005F8F136081F3108862B67047407A0220DE
:102AE00088680020287A0220EFF3108072B67047C1
:102AF00080F310887047C04610B5FFF7F5FF04005B
:102B000001F002FC002803D08022034B52051A601A
:102B10002000FFF7EDFF10BD04ED00E0002310B52D
:102B2000084A094C05202360136002F0BFFAFA211D
:102B3000890006F04BF8054B013818600723236025
:102B400010BDC04618E000E010E000E014E000E036
:102B5000FF22204B1204196810B50A431A60FF22A5
:102B60000220196812060A431A601B49404204F009
:102B7000EBF901201949404204F0E6F90520184913
:102B8000404204F0E1F9FFF7C9FF0022154B1A603B
:102B9000D0231B06144A1C681470FF221A651A6D94
:102BA000D20704D501219A6D1A6D1142FBD10F3461
:102BB000FF21200002F0D4FF20000C4902F0CAFDE2
:102BC0000121200002F08EFDFFF7BAFE01F0AEFBFE
:102BD00004F0C2FB20ED00E081290010F92A00106A
:102BE00035290010407A0220D00F0020E52900107E
:102BF000D02310B51B061868074B1B78834200D002
:102C000010BDEFF30583002B02D05B00C018F7E77F
:102C100001F0F2FDF4E7C046D00F002000B5144AE1
:102C200003681078D0221206126883B0904208D050
:102C3000BFF35F8F00221A6081F3108820BF03B0BA
:102C400000BD0C4A13600C4A11600C4A02219446E4
:102C500063449B10FF319940094B012218680123FE
:102C60005B420093090A002300F056F9E7E7C046EB
:102C7000D00F002088680020287A022000FFFF2F54
:102C8000AC7A02200A002B4903688C46022130B539
:102C900063449B10FF319940274B83B01C78D023AD
:102CA0001B061B68090A9C421FD040BF234D0368C6
:102CB0002C68A34234D02368002BFCD0BFF35F8F75
:102CC0001F4C23680B4323602B68BFF35F8F0021E9
:102CD00019600368D020002100064165BFF35F8FB3
:102CE000196082F3108803B030BD40BF0368BFF3A2
:102CF0005F8F0020186082F31088EFF30583DBB24A
:102D0000002B12D00F4B019001AA186800F0AAF90D
:102D1000019B002BE7D080220B4B52051A60E2E7A3
:102D2000074C206808432060D4E7064B186800F081
:102D30004FF9D8E700FFFF2FD00F0020EC650020EF
:102D4000447A0220AC7A022004ED00E0F0B5CE46D1
:102D5000474680B51D00344B14001A78D0231B065B
:102D60001B688146884683B09A420FD00368BFF340
:102D70005F8F00221A6081F310882000290003F081
:102D8000FBFB03B0C0BCB946B046F0BD03F0E0FCAD
:102D900022002B000127121A8B41244E7F42B618C5
:102DA0005F41002F20DC1BD04B461B68BFF35F8FB9
:102DB00000221A6088F310881D4B5A6A954205D884
:102DC0009B6A0120A342DCD29542DAD18022194BC2
:102DD00052051A60BFF34F8FBFF36F8F0020D0E70B
:102DE000FA239B009E42DFD3FA22002330003900F1
:102DF000920005F011FF031ED6D04A4640461268E5
:102E00000D490A600D4908600D498C460221624453
:102E10009210FF3191400B4A090A10680093012279
:102E2000002300F079F8C7E7D00F002018FCFFFF5F
:102E30000040054004ED00E088680020287A022068
:102E400000FFFF2FAC7A022010B502F0EDF9054A21
:102E5000054B944660448000186000F051F8034B25
:102E6000186010BD40000034EC650020AC7A0220F0
:102E7000F8B5DE4657464E464546E0B505000F001C
:102E8000060001F0CDF829682C6939430C36296019
:102E9000A6422CD0002398468023DB049B46802347
:102EA0005B049A4680239B0499460FE06746002FF7
:102EB0000AD057463A4202D042461A4390464B4601
:102EC000194301F003FC2968A6420ED020000F0030
:102ED0000268646813021B0A1F40BC465F463A4200
:102EE000E4D06345E5D0A642F0D14346994329603A
:102EF00001F09EF8F0BCBB46B246A946A046F8BD1C
:102F000010B51C20FFF732FC041E03D0002308C0BC
:102F100000F0B4F8200010BDF0B5C646060000B5BC
:102F20000D0090461F0001F07BF83468002F13D18C
:102F300025420BD04346002B0BD02300AB4333601C
:102F400001F076F8200080BCB846F0BD069B002B4F
:102F500021D101F06DF8F5E72B0023409D42E9D027
:102F6000069B002BF5D0434680215A1E9341C9048D
:102F70001B061943069A2943301D01F065FA01F03A
:102F800057F800281CD001F0F7FC0400830107D596
:102F90002402240AD6E741464B1E99410906E9E777
:102FA000FFF77CFD3468002F0DD12C4205D043463D
:102FB000002B02D02300AB433360FFF77BFDE7E734
:102FC000FFF760FDDFE723002B409D42F5D1EEE7E0
:102FD000F8B5DE4657464E464546E0B505000F00BB
:102FE000060001F01DF829682C6939430C36296068
:102FF000A6422CD0002398468023DB049B468023E6
:103000005B049A4680239B0499460FE06746002F95
:103010000AD057463A4202D042461A4390464B469F
:10302000194301F053FB2968A6420ED020000F007F
:103030000268646813021B0A1F40BC465F463A429E
:10304000E4D06345E5D0A642F0D1434699432960D8
:1030500000F0EEFF2868F0BCBB46B246A946A04689
:10306000F8BDC04610B5044C13000A000100200052
:1030700001F0A4FE10BDC046712E001003000833FD
:1030800001224360C36003610023524282600360F7
:103090007047C046002303617047C046030030B547
:1030A0000D6808336A1C0DD01C005B681A68AA42C0
:1030B000FAD94B60996003688C60013361600861E4
:1030C000036030BD04696368F3E7C0460369416883
:1030D00082688A6051605968814205D0002202618D
:1030E00018680138186070475A60F7E7F0B5DE4697
:1030F0004E4657464546E0B585B00600FFF7CEFC84
:103100004523F45C64B2002C21DD213B9946213338
:103110009A46B14409E0AA6BEB6B03969A4245D3F9
:10312000013CE3B264B2002B11D0B56C002DF2D19A
:10313000736A002B0BD0484601F062FA0028EFD0EA
:1031400001F054FB013CE3B264B2002BEDD1452306
:10315000FF22F254FFF7AEFCFFF7A0FC442335003A
:10316000F45C103564B2002C05DC13E0013CE2B2E3
:1031700064B2002A0ED03369002B0BD0280001F076
:103180003FFA0028F2D0013C01F030FBE2B264B219
:10319000002AF0D14423FF22F254FFF78BFC05B044
:1031A000F0BCBB46B246A946A046F0BD53462A6CC9
:1031B000EF5CAB6B7FB29846002A16D101239C4688
:1031C0002B68E0449B46002B2BD04346AB637B1C13
:1031D0001DD16B6A002BA3D02800243001F010FA17
:1031E00000289DD001F002FBACE703A9686806F057
:1031F000B7F941466B682A6C01319B18AA686B606D
:10320000934201D32B686B60A9637B1CE1D001F072
:1032100075F8B84200D883E7452301377FB2EF54F1
:103220007EE7A86801F038FB5B46AB60434601903F
:10323000AB637B1C09D16B6A002B0FD1019B002B68
:1032400000D16DE701F0D2FA7CE701F057F8B842FF
:10325000F4D9534601377FB2EF54EFE7280024300A
:1032600001F0CEF90028E9D06AE7C046F0B5C646BD
:1032700000B5846C82B0A26BE36B002501909A428A
:1032800004D3280002B080BCB846F0BD4523226CB0
:10329000E65CA76B76B2002A1CD0606801A906F034
:1032A0005FF96368226C9B18A2686360934201D344
:1032B0002368636000250137A763731C15D1636A17
:1032C000002BDED02000243001F09AF90028D8D05D
:1032D0000125D6E723689846002BEBD1A06801F0C2
:1032E000DBFA43460500A360E5E701F007F88642F4
:1032F000C7D24523013676B2E654C2E7F8B50500D9
:103300000E001700002841D0030C0A0C002B42D1FC
:10331000002A30D1300068430300553336D854308A
:10332000FFF724FA041E31D00300002E31D12360B0
:10333000E5632664FFF7B2FB216CE36B22684B4325
:10334000D0185B1A6260D218E260FF230025442285
:10335000A0602000A563A3540132A3541030FFF7EE
:103360008DFE20002430FFF789FEFFF7A3FB5023DA
:10337000E754A5640BE0131CA9B2B2B24A4380B271
:103380009BB24343120C9B181B0CC3D0002420009B
:10339000F8BD5433CBE7002AF8D1301CECE7C04627
:1033A000F0B5CE46474680B585B0040088469946BC
:1033B0000192022B00D19DE0FFF770FBA36BE26B43
:1033C0000027442500269A4232D8019B002B64D066
:1033D000002F5ED0FFF76EFB00F022FEFFF75EFBD2
:1033E000635D5BB2013300D166554523E25C52B2A6
:1033F000013200D1E654FFF75DFB01A902A801F0FC
:10340000BBF9002800D06FE0FFF748FBA26BE36B2D
:103410009A422CD0FFF74EFB2000FFF767FE00F02A
:1034200007FE0127FFF73AFBA36BE26B9A42CCD968
:10343000226CA66BA56B002A37D123680020984622
:10344000002B00D184E0A36C0135A563002B00D1D3
:1034500070E04B46022B01D1002E04D12000FFF773
:1034600005FF00283DD1FFF725FB012018E0FFF7FD
:1034700021FB20000199103000F096FF2000FFF79B
:1034800035FE00F0D5FD0028CBD1FFF7FBFA012770
:10349000C8E702A801F064F99CE7FFF70BFB0020E6
:1034A00005B0C0BCB946B046F0BD4B46002B29D193
:1034B0004146606806F054F86368226C01359B1839
:1034C000A268636093423BD2A36CA563002BC5D175
:1034D000636A002BC7D02000243001F091F8002847
:1034E000C1D0FFF7CFFABEE72000FFF7FFFD00F0E5
:1034F0009FFDD4E7FFF7D2FA226CA36BA66BA56BF6
:10350000002A9AD04146E06806F02AF8226CE36867
:1035100051429B1A2268E360934202D2A3685B186F
:10352000E3604A46A36C022A18D00135A563002B3C
:1035300094D1CDE7636A002BCDD10028D1D192E799
:103540002368A5636360A36C002B00D086E7BFE708
:10355000A06801F0A1F94346A36074E7002D04D0F0
:10356000A563002B00D077E7B2E70122A263002B0E
:1035700000D071E7ACE7C04670B506005420FFF7F5
:10358000F5F8041E2CD0002501230060C3630564F8
:10359000FFF784FA216CE36B22684B43D0185B1A67
:1035A0006260D218E260FF234422A0602000A5637D
:1035B000A3540132A3541030FFF760FD20002430E3
:1035C000FFF75CFDFFF776FA50230022E654002156
:1035D00000232000A564A5602560E560FFF7E0FEFC
:1035E000200070BDF8B54E46DE46574645460400FD
:1035F000E0B591461D000F00FFF776FAA26BE36B72
:1036000006009A422DD300239846022D09D030009F
:10361000FFF76EFA4046F0BCBB46B246A946A0464C
:10362000F8BD4533E35C226C5BB29846A36B9B46C6
:10363000A36B9A46002A3BD15746236801379A4626
:10364000002B63D04346A763013327D1A36C002B23
:1036500042D0022D4AD15B46002B47D00123984629
:10366000D5E74523E35C226C5BB29846A36B9B468F
:10367000A36B9A46002ADFD0002D19D13900574696
:10368000606805F06DFF6368226C01379B18A268C3
:1036900063609342D6D323686360D3E700F02EFEC5
:1036A0008045DBD24346452201335BB2A354D5E7C4
:1036B0003900E06805F054FF226CE36851429B1A20
:1036C0002268E360934202D2A3685B18E360574626
:1036D000022D17D00137B5E7636A002BBED020005A
:1036E000243000F08DFF002805D1B7E72000FFF758
:1036F000BDFD0028B2D04B46002BAFD001234A4677
:103700001360ABE7002F9DD101379BE7A06801F064
:10371000C3F85346A36095E7F0B54746CE4604008C
:1037200080B585B088460192FFF7B8F9A76B002FE6
:103730005ED1019B002B3BD002A801F011F80023C1
:10374000442699464525FFF7B5F900F069FCFFF7D7
:10375000A5F9A35D5BB2013301D14B46A355635D6F
:103760005BB2013301D14B466355FFF7A3F901A9C1
:1037700002A801F001F8002822D1FFF78FF9A36B0E
:10378000002B2AD1FFF796F920000199243000F090
:103790000BFE2000FFF7AAFC00F04AFC002824D012
:1037A000FFF77CF9A76B002F22D1019B002BCAD118
:1037B000FFF780F9002005B0C0BCB946B046F0BDA7
:1037C0002000FFF793FC00F033FCFFF767F9A36BD1
:1037D000002BEDD0FFF76EF9E2E7FFF76BF9200061
:1037E000FFF784FC00F024FCDAE7FFF74BF9D7E79A
:1037F000226C002A08D0E168A3688918E160994228
:103800000BD2404605F0ACFE7B1EA3632369002B60
:1038100006D1FFF74FF90120CDE72168E160F0E71D
:103820002000103000F0ECFE0028F2D0FFF72AF95B
:10383000EFE7C046F0B5C6460023040000B584B0EB
:1038400098460191FFF72AF9A36B0027442500262B
:10385000002B3AD1019B002B00D16FE0002F54D0F8
:10386000FFF728F900F0DCFBFFF718F9635D5BB2A6
:10387000013300D166554522A35C5BB2013300D110
:10388000A654FFF717F901A902A800F075FF002858
:1038900027D1FFF703F9A36B002B3ED1FFF70AF9FD
:1038A0002368002B56D020000199243000F07CFDC5
:1038B0002000FFF71BFC00F0BBFB002841D00127D4
:1038C000FFF7ECF8A36B002BC4D0013BA363236884
:1038D000002B51D02369002B45D1FFF7EBF80120D5
:1038E0000FE02000FFF702FC00F0A2FBFFF7D6F884
:1038F000A36B002B0DD1FFF7DDF84346002B15D14C
:10390000002004B080BCB846F0BD02A800F028FF3B
:10391000A6E7FFF7CFF80127D2E7FFF7CBF82000A3
:10392000FFF7E4FB012700F083FBC9E7FFF7B6F8D8
:10393000616A002909D1A06800F0E0FFFFF7BAF83A
:10394000DEE7FFF79FF80127BAE72021236B1B680A
:10395000C91AF0E7FFF7A2F8A06800F053FF80460D
:10396000FFF7A8F89FE72000103000F049FE00287C
:10397000B3D0FFF787F8B0E701F00AF8A060A9E735
:1039800010B5002933D0424B5A68904200D173E001
:103990001A68002A2CD0DA68904200D176E09A6842
:1039A000002A3ED05A69904200D16DE01A69002A7F
:1039B0003DD0DA69904261D09A69002A3DD05A6AB6
:1039C000904242D01A6A002A43D0DA6A904257D015
:1039D0009A6A002A43D05A6B904253D01A6B002A3D
:1039E00043D0DA6B904245D09A6B002A2AD010BDA2
:1039F000DA6890424AD05A69904245D01A00DC6990
:103A0000A0423BD05C6AA0421FD0DC6AA04237D003
:103A10005C6BA04236D0DC6BA0422BD011605060B2
:103A2000E5E75A6990422FD01A000832E7E7DA69D1
:103A3000904223D01A001032E4E75A6A904204D030
:103A4000144AE2E738331A00E8E70422D2009A1851
:103A5000E4E7DA6A904213D01A002032D8E75A6BB2
:103A600090420FD01A002832D5E71A00DC6B3032B2
:103A7000A042D3D10722E9E70022E7E70322E5E7E6
:103A80000522E3E70622E1E70222DFE70122DDE784
:103A9000381900205019002070B5040016000D00E0
:103AA000FEF7FCFF4422A35C5BB2013301D100238B
:103AB000A3544522A35C5BB2013301D10023A3547C
:103AC000FEF7F8FFA36B002B03D02000FFF70EFBDF
:103AD00070BD200032002900243000F017FDF4E70B
:103AE000F0B5C64600B50400FEF7D8FF384A394F96
:103AF0001368013313603B68002B35D0364BE26A04
:103B000098461B68002B29D0344E35490B68013389
:103B10000B606364334B1968914200D21A609300C2
:103B20009B189B00F1184A689068A260844665461D
:103B3000E060201D68609060F25861610132F250CF
:103B4000FEF7B8FF43461B68002B04D03B68DA6AD7
:103B5000E36A9A4211D380BCB846F0BD3B68DB6A89
:103B60009342D1D83C60CFE73C601368012B07D06B
:103B7000194BE26A9846194EC7E7FEF783FFEAE75A
:103B8000A023164E9B0098463500B04428001435FB
:103B9000FFF774FA4545F9D1134B98461800FFF723
:103BA0006DFA124D2800FFF769FA1148FFF766FA1F
:103BB0001048FFF763FA1048FFF760FA42460F4BD0
:103BC0001A600F4BE26A1D60034B98469DE7C046A2
:103BD000487A0220F0650020E87A0220086600207A
:103BE000547A0220587A0220847A0220987A02209D
:103BF000D47A0220087B0220F47A0220F8650020A3
:103C000000660020F0B5C646124B00B59846124D2E
:103C1000124F134E14E0FEF741FFFB68DC68201DD5
:103C2000FFF754FA3368013B33602B68013B2B608C
:103C3000FEF740FF206BFEF72BFE2000FEF728FE6C
:103C40002B68002BE7D143461B68012BF8D9FEF700
:103C500019FFF5E7086600204C7A0220087B022055
:103C6000487A0220F0B5DE4657464E464546584B48
:103C7000E0B51A6883B0013294461A60002A5ED01B
:103C8000544B1A6894456ED3534A90461268126892
:103C9000002A00D195E000220092504A504D9346F0
:103CA000002291464F4A0193924636E049465961B7
:103CB0001168013911609A6A002A0DD0D969186A11
:103CC000566888604160190018318E426FD04946AD
:103CD00099621168013911605246D96A126891429D
:103CE00001D9524611608A0052189200AE187068CD
:103CF00087689860DF607C6084605E61AB580133E8
:103D0000AB505B461B68DB6A994201D901230093E3
:103D100043461B681B68002B4ED043461B68DB687C
:103D2000DB685A68944544D35A699868D9681C1D61
:103D3000816048605068A042B8D15160B6E7264B18
:103D4000294A196810681860116028490A68013208
:103D50000A601A681268002A23D11E4B013A1A60C1
:103D60001A68944590D2002300931C4B1C4D9B462F
:103D70005B461B68DA6A93009B189B00EB58012B8B
:103D800001D9012300931A4B1B68002B01D001239A
:103D90000093009803B0F0BCBB46B246A946A046CB
:103DA000F0BD1B68DB681A680A4B1A6069E750604F
:103DB0008DE7019B1A60DBE7019B012252421A60EA
:103DC000D6E700220092054A054D9346F5E7C04626
:103DD0001C7B0220C07A0220F8650020F0650020DC
:103DE00008660020587A022000660020C47A02206B
:103DF000287B0220F8B5CE464746960080B580461F
:103E000030000D009946FEF7B1FC071E00D18AE094
:103E10007020FEF7ABFC041E00D181E0702200216F
:103E200005F098FB3200A5213800276305F092FBCE
:103E3000236B043E9E1907239E43002D4BD0342252
:103E40002B78A354002B43D06B780132A354002B62
:103E50003ED0AB780132A354002B39D0EB7801323D
:103E6000A354002B34D02B790132A354002B2FD034
:103E70006B790132A354002B2AD0AB790132A354C1
:103E8000002B25D0EB790132A354002B20D02B7AC4
:103E90000132A354002B1BD06B7A0132A354002BA8
:103EA00016D0AB7A0132A354002B11D0EB7A013239
:103EB000A354002B0CD02B7B0132A354002B07D032
:103EC0006B7B0132A354002B02D04223AA7BE25425
:103ED00043230022E254089D1F2D1FD8201DE562B8
:103EE000E564FFF7D7F820001830FFF7D3F8202358
:103EF0005B1BA3614A464146300024616462FEF7C1
:103F0000B1FD099B2060002B00D01C602000FFF752
:103F1000E7FD0120C0BCB946B046F8BD1F25DDE76E
:103F20003800FEF7B5FC01204042F3E710B504006D
:103F3000FEF7B4FD002C04D0E46AFEF7BBFD2000C0
:103F400010BD014B1C68F7E7F0650020F0B580203C
:103F5000C6462C4B00B5C00098462B4FFEF706FC1A
:103F60000026051E38D07020FEF700FC041E38D055
:103F70007022002105F0EEFA8022A521D20028004F
:103F8000256305F0E7FAFF239B009C460723256B7A
:103F9000201D65449D431D4B63633823E6540B335A
:103FA000E654E662E664FFF775F820001830FFF784
:103FB00071F8202300224146A36128002461646235
:103FC000FEF750FD206020003C600136FFF788FDC1
:103FD00000F0AEFE012808D00D4B1B6880BCB8462F
:103FE000F0BD2800FEF754FCF6E772B60122094B3B
:103FF00052421A600022084B1E60084B1A60FEF7FE
:10400000A7FDE9E7053C0010B47A022049444C457D
:1040100044310210C07A0220E87A02201C7B022080
:10402000024A1368013313607047C046507A022079
:10403000F0B5DE4657464E464546E0B583B0FEF73E
:104040002DFD534C2368013B23602368002B00D0D7
:1040500081E0504B1B68002B7DD04F4B9C461B686A
:10406000002B00D190E04D4B4D4D98464D4B0194A7
:1040700099464D4B9A4600239B466346DB68DB68B6
:10408000D869196A9A6A81604860180056681830C1
:10409000864200D172E05946996211680139116077
:1040A0005A699868D968566881604860181D8642C8
:1040B00062D01168013911604146DA6A09688A42A2
:1040C00001D941460A60910089188C002E19716847
:1040D0008F689960DF60786088605E612B5901337A
:1040E0002B514B461B68DB6A9A423FD9534601224B
:1040F0001A6063461B68002BBFD12C4B019C1A68C9
:104100001268002A3CD01B68DB681A68284B1A60CA
:10411000284E3568002D14D0012708E0FFF7A2FDD6
:10412000002801D053461F60013D002D08D02368B0
:10413000002BF3D03368013D01333360002DF6D1FD
:10414000356053461B68002B05D0164B01241B68B5
:10415000FEF798FC00E00024FEF7ACFC200003B062
:10416000F0BCBB46B246A946A046F0BD63461B68FC
:10417000002B00D081E7C0E751609AE751608AE7E1
:104180000B4B013A1A60C3E7074B9A46C0E7C0469B
:10419000507A0220487A0220D47A0220587A0220EB
:1041A00008660020F0650020287B0220F8650020CA
:1041B000C07A0220D07A0220F8B5CE464746254A7A
:1041C00080B5136801331360234D03682A685C18B7
:1041D00093420CD9A3420CD804600024FFF728FFB7
:1041E000002829D02000C0BCB946B046F8BDA34283
:1041F00001D8A242F0D22E680021B31A9946174B7B
:10420000174D1F68174B04601B682A6898466D237A
:104210002868D1540430FEF759FF2B6829684C44B4
:104220005C600431A6420AD94046FEF737FF0124FC
:10423000FFF7FEFE0028D5D1FEF724FCD2E73800B8
:10424000FEF72CFF084B1A689442F0D21C60012440
:10425000EEE7C046507A02201C7B0220F865002061
:10426000F065002000660020C07A0220F0B5C64646
:10427000040000B5002821D0174A136801331360E9
:10428000164B00211E68164B164D1F68164BA419BD
:104290001B682A6898466D232868D1540430FEF7BD
:1042A00015FF2B6829685C600431A6420BD9404693
:1042B000FEF7F4FEFFF7BCFE002801D1FEF7E2FB9B
:1042C00080BCB846F0BD3800FEF7E8FE074B1A6820
:1042D0009442EFD21C60EDE7507A02201C7B022052
:1042E000F8650020F065002000660020C07A0220FA
:1042F000014B18687047C0461C7B0220014B1868B0
:104300007047C046487A0220064B10B51B68002B48
:1043100002D1FFF7A7FC10BD034A00201368013348
:104320001360F8E7507A0220D07A0220194B30B59A
:104330001B68002B03D00122174B1A6030BD164AB0
:10434000164C13602268164891008B189B00C558C4
:10435000002D07D1143BC3181968143B013A0029FA
:10436000FAD091008918890045186B6808315B689C
:1043700040186B60834205D0D9680A4B19602260EF
:104380001B68DBE7EB68D9686B60064B196022603D
:104390001B68D3E7507A0220287B0220587A02203B
:1043A00008660020F0650020F0B5C646204D0C00E0
:1043B000296800B51831FEF771FE1E4B00211E68FA
:1043C0001D4B1F681D4B1B682A6898466D23286883
:1043D000D1540430FEF77AFE631C15D02B6829688F
:1043E000A4195C600431A64205D94046FEF756FE8A
:1043F00080BCB846F0BD3800FEF750FE104B1A687E
:104400009442F5D21C60F3E70E4B29685A688A6023
:1044100090682968C86029680431416029680431BE
:1044200091602A6853611A6801321A60E0E7C04659
:10443000F06500201C7B0220F8650020006600204B
:10444000C07A0220F47A02208023F0B5C646294CB7
:1044500015001B0622680B4300B593612268436870
:104460009968D36122681162226818324A60226812
:10447000002118329A602368986203680133036050
:104480001D4B1E681D4B1F681D4B1B6822689846FC
:104490006D232068D1540430FEF718FE6B1C15D034
:1044A00023682168AD195D600431AE4205D94046EC
:1044B000FEF7F4FD80BCB846F0BD3800FEF7EEFD17
:1044C000104B1A689542F5D21D60F3E70E4B216838
:1044D0005A688A6090682168C86021680431416028
:1044E000216804319160226853611A6801321A60B0
:1044F000E0E7C046F06500201C7B0220F865002044
:1045000000660020C07A0220F47A0220F0B5C64688
:10451000354C43680D00216800B59E68CB61216869
:104520000E62216818317160216818319960236822
:1045300098620368013303602C4B002A21D01B686A
:104540002B4B00211B682B4B1B686D2322682068B6
:10455000D1540430FEF7BAFD274B21685A688A60AF
:1045600090682168C8602168043141602168043185
:104570009160226853611A6801321A6080BCB846A3
:10458000F0BD1E681A4B1F681A4B1B6821689846BD
:104590006D232068CA540430FEF798FD6B1C15D0BB
:1045A0002368AD195D60AE420AD821683800043135
:1045B000FEF774FD114B1A689542DFD21D60DDE7EE
:1045C000216840460431FEF769FDD7E72268731E73
:1045D00053609E42F4D8216838000431FEF75EFD36
:1045E000064B1B68CAE7C046F06500201C7B022012
:1045F000F865002000660020F47A0220C07A0220CC
:10460000C368F0B5DB68D869196A9A6A8160486046
:10461000180054681830844241D000219962116812
:1046200001391160234AD96A1268002A29D15A69CE
:104630009C68D8681D1DA06044605468AC4230D0AE
:104640001068013810601C4A1068884225D38A001F
:104650001A485218920086187468A7689C60DF6038
:104660007D60A5605E61835801338350144B002048
:104670001B68DB6A8B4203D20122124B01301A60A5
:10468000F0BD114A5468A568DC611D626860A060D5
:104690009A62136801331360E8E71160D7E751604D
:1046A000BBE75060106801381060034A1068884208
:1046B000CDD2F2E7507A0220587A02200866002014
:1046C000F0650020287B0220D47A022080231B067C
:1046D000F0B5026944680B4381680360C368A16058
:1046E0004C60546884422ED00021016111689868A2
:1046F000013911605A69D9681D1D81604860506890
:10470000A84222D0116801391160114AD96A106893
:10471000814200D911608A000E4852189200861812
:104720007468A7689C60DF607D60A5605E618358E7
:1047300001338350084B1B68DB6A994202D901227E
:10474000064B1A60F0BD5160CEE75160DAE7C04613
:10475000587A022008660020F0650020287B02209D
:10476000034B1B680360034B1B6843607047C046E4
:10477000C47A02201C7B0220F0B5C64600B50400B6
:104780000E00FEF78BF96D231548164A0768156869
:104790006168ED5C002D09D000211268D15401241C
:1047A000FEF788F9200080BCB846F0BD33685A1C7B
:1047B00014D00D4A1568A8462568454504D0B9426D
:1047C00002D800233360EAE77D1AAB42F9D9DB1B3C
:1047D0005B18336013682360036863600024DFE7BD
:1047E0001C7B0220F0650020C47A02200122014BCC
:1047F0001A607047287B0220014B18687047C0463A
:10480000F0650020F8B5041E21D0204DC26A2B6847
:10481000DB6A9A4214D28369002B04DB2B68D96AC5
:1048200020235B1A836193009B18194E9B006269D9
:10483000F3189A420DD02B680120DB6AE36205E091
:104840002B68C06CDB6A984280414042F8BD002072
:10485000FCE7271D3800FEF739FC2B68DA6A0D4BA0
:10486000E26219688A4200D91A6093009B189B0083
:10487000F1184A689068A260E06047609760F2585B
:10488000616101320120F250E0E7C046F06500208E
:1048900008660020587A022070B5041E08D0036D07
:1048A000C16AC26C013B0365914201D0002B01D06B
:1048B000002070BD051D2800FEF708FC2023E26CD7
:1048C0009B1AA3610B4BE26219688A4200D91A60F5
:1048D000930009499B189B00C81842689668A2601B
:1048E000E66075609560CA58606101320120CA5067
:1048F000DFE7C046587A02200866002070B5041E23
:1049000008D0C36C8B4206D3E26A9A4202D0216D72
:10491000012905D070BDE26A0B009A42F7D1F9E790
:10492000A169E362002902DB2021CB1AA361930075
:104930009B180F4D9B006269EB189A42EAD1261D25
:104940003000FEF7C3FB0B4BE26A19688A4200D9BC
:104950001A6093009B189B00E9184A689068A2604F
:10496000E06046609660EA5861610132EA50D1E742
:1049700008660020587A0220044B1A68196890696A
:104980001A682023C96A5B1A93617047F06500209A
:10499000034B1868002802D0036D0133036570478C
:1049A000F0650020F0B55746DE464E464546E0B578
:1049B000CA4A8BB003922822C94BCA4F0193CA4BF3
:1049C000B9469A46C94B93461F004B461B681D6863
:1049D000002D00D1A5E0DB681D68FFF721FBFFF784
:1049E00087FC019B02901B68984200D2ABE0019AC1
:1049F0001060854200D84DE10022029B3868E91A18
:104A0000FFF74AF8FFF714FB002800D134E1102229
:104A1000002106A804F09EFD0022386806A9FEF7D2
:104A20007BFE0028D1D0069B0898002B71DB089CE8
:104A30006369002B02D0201DFEF748FBFFF758FCEE
:104A4000019B05001B68984200D2C9E0019B1D60D4
:104A5000069B092BE0D8039A9B00D3589F465B46E0
:104A6000E05C01235A460343A3540799A2692461D9
:104A70008B186360AB4200D901E1691A8A4231D8D0
:104A8000410710D4012398435B46E0542000236A79
:104A90009847C1E7EB1A9A4200D915E1236A200032
:104AA00098473300A269D61866602461B542F1D2F6
:104AB0009D4201D2B342F1D94B46211D1868FEF741
:104AC000EDFAE3E75B460122E35C13435A46A35445
:104AD000079B24615A19A3616260AA4200D9D3E0FE
:104AE000002B99D05346211D1868FEF7D7FA93E79B
:104AF0005B460122E35C93435A46A3548CE75B4632
:104B0000E35C9A0700D4DBE0012293435A46A354A6
:104B100082E7079B09999847069B002B00DA7BE701
:104B200085E7FFF77DFAFFF7E3FB019B02001B68B7
:104B30000290984207D3019B1A6053461B681A687B
:104B400053425A4159E74B461B681A68002A3BD02A
:104B50000422049790460BE0012293435A46A35443
:104B6000236A200098474B461B681A68002A2AD0FF
:104B7000DB68DC681E68271D3800FEF7A7FA5B4675
:104B80004246E35C1A42E7D0A3692461F518F64374
:104B90006560B3420AD82E00F643236A2000984786
:104BA000A3692461ED186560B342F4D95346390016
:104BB0001868FEF773FA236A200098474B461B6873
:104BC0001A68002AD4D1049F5246494612680A60E6
:104BD00052461360019B029A1A60FFF729FA16E702
:104BE0004B461B681A68002A3FD004220294904664
:104BF000049005970BE0012293435A46A354236A7D
:104C0000200098474B461B681A68002A2AD0DB68A8
:104C1000DC681E68271D3800FEF758FA5B464246DE
:104C2000E35C1A42E7D0A3692461F518F643656096
:104C30009E420AD32E00F643236A20009847A369B8
:104C40002461ED186560B342F4D953463900186801
:104C5000FEF724FA236A200098474B461B681A681F
:104C6000002AD4D1029C049D059F524649461268F1
:104C70000A6052461360E9E6FDF704FFC7E6A94261
:104C800002D9994200D8FBE64B46211D1868FEF771
:104C900005FAC1E6FFF7CCF94B461B68DB68DE6816
:104CA000341D2000FEF712FA5B46F35C5A0711D45C
:104CB000012293435A46B3543000336A9847A6E61C
:104CC0002000FDF7E5FDA7E65346211D1868FEF715
:104CD000E5F9DBE6A0462B00029C10E0483102100B
:104CE000B87A0220F465002004660020207B0220B0
:104CF000E31A9A4214D8336A300098472B00B269FD
:104D000036619D187560AC42F2D29C4201D2AB4232
:104D1000F1D944464B4621001868FEF7BFF9CBE7AE
:104D20004446534621001868FEF7B8F9C4E7C04668
:104D300070B582B0FDF7B2FE174C2368002B12D07D
:104D4000FDF7B8FE23680020002B0AD0134B802209
:104D500001931F231249009312480023D200FFF74A
:104D600049F802B070BD104E3000FEF787F90F4DC4
:104D70002800FEF783F90E4B00221E600D4B102118
:104D80000A201D60FEF7BAFA20600028D8D00A4930
:104D9000FEF7F6FDD4E7C046207B0220247B0220EC
:104DA000C00C0210A54900105C7A0220707A022023
:104DB000F465002004660020B80C021010B5140041
:104DC0001A00022384B05B420093054B01900291CC
:104DD0001868694600230394FEF704FC04B010BD74
:104DE000207B022010B50C2082B002F043F800F0C6
:104DF00063F9002810D08B4B8B488B498B4A186085
:104E000059609860D960186159619861D9611862D8
:104E100059625A6202B010BD854CA06702F080F85A
:104E20000122844B1A60636C012BFCD10322824B5C
:104E30001A607F4A936B012BFCD1013301217F4A19
:104E40007F480093043301F0C3FF05237D4A00939C
:104E500001217D4801F0BCFF7C4B5A68FF2A02D833
:104E6000802252005A608022734B6E4C12011A60ED
:104E70002169002907D0606903F0A8FE01304300D2
:104E80001B18033BFDD2E022704B714819680A40A1
:104E9000026002221968514001320A400421026076
:104EA0009A681142FCD080216A4A0901116080226F
:104EB00052005A60684B2361684B5968FF2900D83B
:104EC0005A60032201215B4B1A60644A93681942BD
:104ED000FCD0E0231068034061480360126803239C
:104EE0004A40022113405D4A036093681942FCD096
:104EF00080215C4B0901196080215B4B49005160A6
:104F000063615A4B5A68FF2A00D859608022584B77
:104F100012011A60E169002907D0606903F056FEAA
:104F2000013043001B18033BFDD2E0234F4A1168B8
:104F30000B4050490B6080214F4B090119608021C3
:104F4000394B49005160E3614C4B5A68FF2A00D845
:104F5000596080224A4B12011A60216A002907D049
:104F6000606903F033FE013043001B18033BFDD2A0
:104F7000E023424A11680B4042490B608021424BBA
:104F80000901196080235B0053608022264BD20206
:104F900023623E4B5968914200D25A6080223C4BBA
:104FA00012011A60616A002907D0606903F00EFEE1
:104FB000013043001B18033BFDD2E023334A116844
:104FC0000B4034490B608021334B09011960802369
:104FD000DB025360154B6362304B5A68FF2A02D8DC
:104FE000802252005A6080222D4B12011A60A16962
:104FF000002907D0606903F0E9FD013043001B1868
:10500000033BFDD2E023254A11680B4025490B6084
:105010008021254B0901196080235B005360124BEE
:10502000A361F7E6B0160020006CDC021BB700009D
:10503000008000403CB0004030B00040002F685974
:1050400000800240008C864700C002403080004053
:105050003090004030A00040001BB7003C80004072
:105060003C9000403CA000404059730754800040F1
:1050700054B000405490004054A000406080004074
:1050800060B000406090004060A000406C80004034
:105090006CB000406C9000406CA000404880004024
:1050A00048B000404890004048A00040014B8000BC
:1050B000C0587047B0160020024B18688007C00F18
:1050C0007047C04600C00640EFF3108072B6034A36
:1050D0001368002BFCD0BFF35F8F70472C0100D00A
:1050E000BFF35F8F0022024B1A6080F31088704775
:1050F0002C0100D070B5EFF3108C72B60D4D2B68FB
:10510000002BFCD0BFF35F8F0724CB08C618C05C10
:1051100001230C40A3401C000440034207D1184364
:105120003070BFF35F8F2C608CF3108870BD10005F
:1051300002F0FAF82C0100D0F8B54746CE46884672
:1051400080B5EFF3108C72B6214D2C68002CFCD08A
:10515000BFF35F8F9A422CD8D4080727055D061944
:1051600001241740BC402C421FD00721012789464B
:1051700009E0D408055D06194C4639001440A140E9
:105180000C00294211D001329342F2D20120404258
:10519000BFF35F8F00220E4B1A608CF3108800283B
:1051A0000FDBC0BCB946B046F8BD254310003570D2
:1051B000EEE7BFF35F8F00232B608CF31088012094
:1051C00040424346002BECD0089802F0ADF8C046B0
:1051D0002C0100D030B5EFF3108C72B60A4C236866
:1051E000002BFCD0BFF35F8F072301220B409A40B6
:1051F000CD08435D93434355BFF35F8F0023236086
:105200008CF3108830BDC0462C0100D00021044B27
:10521000044ABFF35F8F02C39342FAD17047C0467E
:10522000000100D0800100D0044A1078431CDBB29A
:10523000172B00D9102313707047C046D10F0020E0
:1052400010B5064B064C82B00100009318221F23B4
:105250002000FFF771FF02B010BDC046C80C02105D
:105260007C210020D0231B061B688D4A9900F0B5D5
:105270004E46894651585A4253412F225746454679
:10528000DE465B4293439846864BE0B59C4683B02E
:1052900000270191E044002935D0834B0F269B461F
:1052A0004246FB0808339B009C5801233D009A4668
:1052B0000837002C1ED031002140264214D05B4616
:1052C0004A469A585346AB401A420DD1072208006D
:1052D0002A40920090400200EB0874483C339B0047
:1052E0001A502800019B984724090135002C01D051
:1052F000BD42E0D3202FD3D103B0F0BCBB46B246B1
:10530000A946A046F0BD684B00210F229B46012410
:10531000CD082B00404608339B001B58080008317D
:10532000002B00D19DE017001F40BC461A420BD055
:105330005F464E46BE59270087403E4204D166462E
:105340005A4F3C35AD00EE511D0900D189E01700E0
:105350002F402A4211D02600451CAE400195B4468C
:105360005D464E46AE5965462E4206D1019D4F4ED2
:10537000ED083C353F01AD00AF511D0A71D017005B
:105380002F402A4211D02600851CAE400195B4461C
:105390005D464E46AE5965462E4206D1019D434EAE
:1053A000ED083C353F02AD00AF511D0B59D0170041
:1053B0002F402A420AD02600C51CAE400195B446B3
:1053C0005D464E46AE5965462E424ED01D0C48D025
:1053D00017002F40BC462A4209D00126071DBE40B7
:1053E000B2464E46304DAD595646354245D01D0D5C
:1053F00037D016002E40B4462A4209D00126471D58
:10540000BE40B2464E46284DAD59564635423ED076
:105410001D0E26D016002E40B4462A4210D001267A
:10542000871DBE40B2464E461F4DAD5956463542C9
:1054300006D16646FD083C3537061C4EAD00AF511F
:105440001B0F0730002B0CD04D465E4677592500C8
:1054500085402F4205D1C008144D3C301B07800009
:105460004351202900D053E746E7019D0F4EED0838
:105470003C353F03AD00AF51A8E765462D04AC466F
:105480006646FF083C37BD00084FEE51AFE7664661
:10549000FD083C353705054EAD00AF51B8E7C046B5
:1054A0006821002030410140A878002000400140E0
:1054B000094A10B594464024830063441A68C0002A
:1054C0006240803414408022520113431C60034B1D
:1054D0009C466044416010BD04C001400040014052
:1054E000074B80009C4660440368C90092000A4351
:1054F0005A400C231A4080235B0103431A60704713
:1055000004C00140084B80009C466044002905D03F
:10551000802302229B0103431A607047C0230222AA
:105520009B0103431A60F8E704C00140D0231B0627
:105530001B6830B50500584243412F205B4283432E
:105540000D48EC0884460720284080008140200058
:105550000A4D3C3063448000A40041511B19002ACD
:1055600004D0802292011343196030BDC022920101
:1055700013431960F9E7C046304101400040014043
:10558000F8B51D00D0231B061C680600604244418C
:105590002F20644284432748F70884460720304080
:1055A000800081403800244E3C3064448000BF00BD
:1055B0008151E419002A11D0802292012243116006
:1055C0001C681E4EA400A359002B15D0002D25D019
:1055D000A55101210D2000F085F8F8BDC0229201EF
:1055E000224311601C68154EA400A359002B0CD057
:1055F000002D18D0A551F0E7002DEAD000220D2093
:105600000F49A55100F0D0F8E3E7002DE5D00022C6
:105610000D200B49A55100F0C7F8DEE70D20084921
:1056200000F0BCF9D4E70D20054900F0B7F9A55109
:10563000D3E7C046304101400040014068210020CE
:1056400065520010D023F0B5C6461B0698461B686D
:105650000C4F9B001600FA5804000D0000B51042D4
:1056600009D1290014430D203200FC5000F09CF8B1
:1056700080BCB846F0BD01F075FE43461B689B0038
:10568000FA58EEE7A878002010B504000D2000F0CD
:1056900085F9D0231B061B6802499B005A58A24378
:1056A0005A5010BDA87800200123D0228340120652
:1056B00093629361094A40219446830063441A68C7
:1056C000C0004A40803111408022520113431960CA
:1056D000034B9C46052360444360704704C001406F
:1056E0000040014001238340002904D0034A136095
:1056F000034A13607047034A1360FBE780E200E04F
:1057000000E100E080E100E001238340014A1360F2
:105710007047C04600E200E0084B10309B688000F4
:10572000C358002B07D0064A00209B1A2F229A420A
:105730004041C0B270470020FCE7C04600ED00E0E9
:10574000D40F0020024B10309B688000C058704777
:1057500000ED00E070B50D00EFF3108672B60F4A51
:105760001368002BFCD0BFF35F8F0D4B10309B688C
:1057700084001B590B4A934203D09D4201D001F093
:10578000F1FD074B9B681D51BFF35F8FBFF35F8F28
:105790000022024B1A6086F3108870BD240100D0ED
:1057A00000ED00E0CD010010F0B557464E46DE4654
:1057B0004546E0B585B0060000911700EFF3108B69
:1057C00072B66A4A1368002BFCD0BFF35F8F0025C6
:1057D000674B5D579A46002D00DAA9E06B00654CD7
:1057E00001935B199B009846A146C1444B46524623
:1057F0009B7910361370604BB6009B6899590B1B50
:105800002F2B33D95D4B994200D0ACE0019B42462F
:105810009C465B4B6544AD0063535A4B0232A21861
:10582000043B9B1A1B05584A5B0D651913436B809B
:10583000564B0121AB80FF23AB71009BEF71AB6036
:105840004B460B4319004C4B9B689951BFF35F8F3C
:10585000BFF35F8F0022454B1A608BF3108805B0B1
:10586000F0BCBB46B246A946A046F0BD01200A00E6
:105870008243D3798C46BB4231D845461300444914
:105880001B1B5B415943090D3D4B63533D4B023597
:105890006519043B5B1B1B053B4D5B0D2B43AA4667
:1058A0004D466B800425AC465546E044131F4444E6
:1058B0001B1B1B055B0D1D434B46997100999D8079
:1058C00099604946DF71334B01431360BBE75800D1
:1058D000C01880002018C179B9422FD902000623D0
:1058E000D356002BF3DA02932B4B61460393131D1F
:1058F0009A4604235B429C46E14450464B461B1AA1
:105900001B055B0D9C46204B9571984663464046AF
:1059100003439380019B5A199200039BA418A38010
:10592000029B1C4AA371009B2260E771A3608AE777
:1059300001F018FD002553465D574FE7908802930C
:105940004005131D9A46031561469C464046D444C3
:10595000634604302018181AE0230005400D1B028E
:1059600018430390C5E701F0FDFC4FE7240100D088
:10597000507B0220D40F002000ED00E0CD0100108C
:1059800000A1FFFF0410002000E0FFFF01BDFFFFAA
:10599000AAAA00000148804701BD0000F0B5DE461C
:1059A00057464E464546E0B50C0083B0EFF31088ED
:1059B00072B65D4A1368002BFCD0BFF35F8F5B4B60
:1059C0005B499A68030010339F00D5598D4239D046
:1059D000A5424AD0574EAA1B2F2A33D801229246FD
:1059E000824091464846544A126810400190484609
:1059F000524A1060BFF35F8FEFF305829346002A8F
:105A000035D0934201D001F0ADFC2A0053469A43B1
:105A10009068844208D175E04B005B189B00F31836
:105A20009868A04234D01A00062151560029F3DAB2
:105A3000844253D0019B002B26D04A46404B1A602B
:105A40003D4B1A60394B9B68DD51BFF35F8FBFF34D
:105A50005F8F0022344B1A6088F3108803B0F0BCCB
:105A6000BB46B246A946A046F0BD0D00EAE72A00B3
:105A700053469A4390688442D6D1062010561300AC
:105A8000002809DA0D0031E04A462C4B1A60D9E7AC
:105A900006201856002822DB4200111889007418CD
:105AA0008A46A1689960E179D97106216156997198
:105AB000002925DBA488F11A64052415544409192A
:105AC000E0240905490D24022143998013181D4A39
:105AD0009B001178F31899711070ABE713005946C9
